{
  "contractName": "SupplyChain",
  "abi": [
    {
      "inputs": [],
      "stateMutability": "nonpayable",
      "type": "constructor"
    },
    {
      "inputs": [
        {
          "internalType": "uint256",
          "name": "",
          "type": "uint256"
        }
      ],
      "name": "DIS",
      "outputs": [
        {
          "internalType": "address",
          "name": "addr",
          "type": "address"
        },
        {
          "internalType": "uint256",
          "name": "id",
          "type": "uint256"
        },
        {
          "internalType": "string",
          "name": "name",
          "type": "string"
        },
        {
          "internalType": "string",
          "name": "place",
          "type": "string"
        }
      ],
      "stateMutability": "view",
      "type": "function",
      "constant": true
    },
    {
      "inputs": [
        {
          "internalType": "uint256",
          "name": "",
          "type": "uint256"
        }
      ],
      "name": "MAN",
      "outputs": [
        {
          "internalType": "address",
          "name": "addr",
          "type": "address"
        },
        {
          "internalType": "uint256",
          "name": "id",
          "type": "uint256"
        },
        {
          "internalType": "string",
          "name": "name",
          "type": "string"
        },
        {
          "internalType": "string",
          "name": "place",
          "type": "string"
        }
      ],
      "stateMutability": "view",
      "type": "function",
      "constant": true
    },
    {
      "inputs": [
        {
          "internalType": "uint256",
          "name": "",
          "type": "uint256"
        }
      ],
      "name": "MedicineStock",
      "outputs": [
        {
          "internalType": "uint256",
          "name": "id",
          "type": "uint256"
        },
        {
          "internalType": "string",
          "name": "name",
          "type": "string"
        },
        {
          "internalType": "string",
          "name": "description",
          "type": "string"
        },
        {
          "internalType": "uint256",
          "name": "RMSid",
          "type": "uint256"
        },
        {
          "internalType": "uint256",
          "name": "MANid",
          "type": "uint256"
        },
        {
          "internalType": "uint256",
          "name": "DISid",
          "type": "uint256"
        },
        {
          "internalType": "uint256",
          "name": "RETid",
          "type": "uint256"
        },
        {
          "internalType": "enum SupplyChain.STAGE",
          "name": "stage",
          "type": "uint8"
        }
      ],
      "stateMutability": "view",
      "type": "function",
      "constant": true
    },
    {
      "inputs": [],
      "name": "Owner",
      "outputs": [
        {
          "internalType": "address",
          "name": "",
          "type": "address"
        }
      ],
      "stateMutability": "view",
      "type": "function",
      "constant": true
    },
    {
      "inputs": [
        {
          "internalType": "uint256",
          "name": "",
          "type": "uint256"
        }
      ],
      "name": "RET",
      "outputs": [
        {
          "internalType": "address",
          "name": "addr",
          "type": "address"
        },
        {
          "internalType": "uint256",
          "name": "id",
          "type": "uint256"
        },
        {
          "internalType": "string",
          "name": "name",
          "type": "string"
        },
        {
          "internalType": "string",
          "name": "place",
          "type": "string"
        }
      ],
      "stateMutability": "view",
      "type": "function",
      "constant": true
    },
    {
      "inputs": [
        {
          "internalType": "uint256",
          "name": "",
          "type": "uint256"
        }
      ],
      "name": "RMS",
      "outputs": [
        {
          "internalType": "address",
          "name": "addr",
          "type": "address"
        },
        {
          "internalType": "uint256",
          "name": "id",
          "type": "uint256"
        },
        {
          "internalType": "string",
          "name": "name",
          "type": "string"
        },
        {
          "internalType": "string",
          "name": "place",
          "type": "string"
        }
      ],
      "stateMutability": "view",
      "type": "function",
      "constant": true
    },
    {
      "inputs": [],
      "name": "disCtr",
      "outputs": [
        {
          "internalType": "uint256",
          "name": "",
          "type": "uint256"
        }
      ],
      "stateMutability": "view",
      "type": "function",
      "constant": true
    },
    {
      "inputs": [],
      "name": "manCtr",
      "outputs": [
        {
          "internalType": "uint256",
          "name": "",
          "type": "uint256"
        }
      ],
      "stateMutability": "view",
      "type": "function",
      "constant": true
    },
    {
      "inputs": [],
      "name": "medicineCtr",
      "outputs": [
        {
          "internalType": "uint256",
          "name": "",
          "type": "uint256"
        }
      ],
      "stateMutability": "view",
      "type": "function",
      "constant": true
    },
    {
      "inputs": [],
      "name": "retCtr",
      "outputs": [
        {
          "internalType": "uint256",
          "name": "",
          "type": "uint256"
        }
      ],
      "stateMutability": "view",
      "type": "function",
      "constant": true
    },
    {
      "inputs": [],
      "name": "rmsCtr",
      "outputs": [
        {
          "internalType": "uint256",
          "name": "",
          "type": "uint256"
        }
      ],
      "stateMutability": "view",
      "type": "function",
      "constant": true
    },
    {
      "inputs": [
        {
          "internalType": "uint256",
          "name": "_medicineID",
          "type": "uint256"
        }
      ],
      "name": "showStage",
      "outputs": [
        {
          "internalType": "string",
          "name": "",
          "type": "string"
        }
      ],
      "stateMutability": "view",
      "type": "function",
      "constant": true
    },
    {
      "inputs": [
        {
          "internalType": "address",
          "name": "_address",
          "type": "address"
        },
        {
          "internalType": "string",
          "name": "_name",
          "type": "string"
        },
        {
          "internalType": "string",
          "name": "_place",
          "type": "string"
        }
      ],
      "name": "addRMS",
      "outputs": [],
      "stateMutability": "nonpayable",
      "type": "function"
    },
    {
      "inputs": [
        {
          "internalType": "address",
          "name": "_address",
          "type": "address"
        },
        {
          "internalType": "string",
          "name": "_name",
          "type": "string"
        },
        {
          "internalType": "string",
          "name": "_place",
          "type": "string"
        }
      ],
      "name": "addManufacturer",
      "outputs": [],
      "stateMutability": "nonpayable",
      "type": "function"
    },
    {
      "inputs": [
        {
          "internalType": "address",
          "name": "_address",
          "type": "address"
        },
        {
          "internalType": "string",
          "name": "_name",
          "type": "string"
        },
        {
          "internalType": "string",
          "name": "_place",
          "type": "string"
        }
      ],
      "name": "addDistributor",
      "outputs": [],
      "stateMutability": "nonpayable",
      "type": "function"
    },
    {
      "inputs": [
        {
          "internalType": "address",
          "name": "_address",
          "type": "address"
        },
        {
          "internalType": "string",
          "name": "_name",
          "type": "string"
        },
        {
          "internalType": "string",
          "name": "_place",
          "type": "string"
        }
      ],
      "name": "addRetailer",
      "outputs": [],
      "stateMutability": "nonpayable",
      "type": "function"
    },
    {
      "inputs": [
        {
          "internalType": "uint256",
          "name": "_medicineID",
          "type": "uint256"
        }
      ],
      "name": "RMSsupply",
      "outputs": [],
      "stateMutability": "nonpayable",
      "type": "function"
    },
    {
      "inputs": [
        {
          "internalType": "uint256",
          "name": "_medicineID",
          "type": "uint256"
        }
      ],
      "name": "Manufacturing",
      "outputs": [],
      "stateMutability": "nonpayable",
      "type": "function"
    },
    {
      "inputs": [
        {
          "internalType": "uint256",
          "name": "_medicineID",
          "type": "uint256"
        }
      ],
      "name": "Distribute",
      "outputs": [],
      "stateMutability": "nonpayable",
      "type": "function"
    },
    {
      "inputs": [
        {
          "internalType": "uint256",
          "name": "_medicineID",
          "type": "uint256"
        }
      ],
      "name": "Retail",
      "outputs": [],
      "stateMutability": "nonpayable",
      "type": "function"
    },
    {
      "inputs": [
        {
          "internalType": "uint256",
          "name": "_medicineID",
          "type": "uint256"
        }
      ],
      "name": "sold",
      "outputs": [],
      "stateMutability": "nonpayable",
      "type": "function"
    },
    {
      "inputs": [
        {
          "internalType": "string",
          "name": "_name",
          "type": "string"
        },
        {
          "internalType": "string",
          "name": "_description",
          "type": "string"
        }
      ],
      "name": "addMedicine",
      "outputs": [],
      "stateMutability": "nonpayable",
      "type": "function"
    }
  ],
  "bytecode": "0x60806040526000600155600060025560006003556000600455600060055534801561002957600080fd5b50336000806101000a81548173ffffffffffffffffffffffffffffffffffffffff021916908373ffffffffffffffffffffffffffffffffffffffff160217905550612613806100796000396000f3fe608060405234801561001057600080fd5b50600436106101425760003560e01c806386c18275116100b8578063b4a99a4e1161007c578063b4a99a4e1461033d578063cc4030691461035b578063dd2863981461038e578063e101a2e0146103ac578063eb1a06b5146103dc578063eef5cb401461041357610142565b806386c18275146102af5780638f4183cc146102cb5780639c03facb146102e7578063a48d335a14610303578063a95f29d91461031f57610142565b8063438e9c4d1161010a578063438e9c4d146101ec5780634def474a1461020a57806359bf286f146102265780636a992c9f146102595780637e43d94d14610275578063857ddb041461029357610142565b80632a4af440146101475780632b0187ac146101635780632b70b08d146101965780632bdb2e6b146101b25780633d753a1c146101d0575b600080fd5b610161600480360381019061015c9190611ed7565b610446565b005b61017d60048036038101906101789190611f98565b610589565b60405161018d9493929190612062565b60405180910390f35b6101b060048036038101906101ab9190611ed7565b6106e9565b005b6101ba61082c565b6040516101c791906120b5565b60405180910390f35b6101ea60048036038101906101e59190611f98565b610832565b005b6101f4610919565b60405161020191906120b5565b60405180910390f35b610224600480360381019061021f9190611f98565b61091f565b005b610240600480360381019061023b9190611f98565b610a06565b6040516102509493929190612062565b60405180910390f35b610273600480360381019061026e9190611ed7565b610b66565b005b61027d610ca9565b60405161028a91906120b5565b60405180910390f35b6102ad60048036038101906102a89190611ed7565b610caf565b005b6102c960048036038101906102c49190611f98565b610df2565b005b6102e560048036038101906102e091906120d0565b610ed9565b005b61030160048036038101906102fc9190611f98565b61107f565b005b61031d60048036038101906103189190611f98565b61116d565b005b610327611254565b60405161033491906120b5565b60405180910390f35b61034561125a565b6040516103529190612148565b60405180910390f35b61037560048036038101906103709190611f98565b61127e565b6040516103859493929190612062565b60405180910390f35b6103966113de565b6040516103a391906120b5565b60405180910390f35b6103c660048036038101906103c19190611f98565b6113e4565b6040516103d39190612163565b60405180910390f35b6103f660048036038101906103f19190611f98565b611742565b60405161040a9897969594939291906121fc565b60405180910390f35b61042d60048036038101906104289190611f98565b6118a7565b60405161043d9493929190612062565b60405180910390f35b60008054906101000a900473ffffffffffffffffffffffffffffffffffffffff1673ffffffffffffffffffffffffffffffffffffffff163373ffffffffffffffffffffffffffffffffffffffff161461049e57600080fd5b600460008154809291906104b1906122b7565b919050555060405180608001604052808473ffffffffffffffffffffffffffffffffffffffff16815260200160045481526020018381526020018281525060096000600454815260200190815260200160002060008201518160000160006101000a81548173ffffffffffffffffffffffffffffffffffffffff021916908373ffffffffffffffffffffffffffffffffffffffff16021790555060208201518160010155604082015181600201908161056a919061250b565b506060820151816003019081610580919061250b565b50905050505050565b60096020528060005260406000206000915090508060000160009054906101000a900473ffffffffffffffffffffffffffffffffffffffff16908060010154908060020180546105d89061232e565b80601f01602080910402602001604051908101604052809291908181526020018280546106049061232e565b80156106515780601f1061062657610100808354040283529160200191610651565b820191906000526020600020905b81548152906001019060200180831161063457829003601f168201915b5050505050908060030180546106669061232e565b80601f01602080910402602001604051908101604052809291908181526020018280546106929061232e565b80156106df5780601f106106b4576101008083540402835291602001916106df565b820191906000526020600020905b8154815290600101906020018083116106c257829003601f168201915b5050505050905084565b60008054906101000a900473ffffffffffffffffffffffffffffffffffffffff1673ffffffffffffffffffffffffffffffffffffffff163373ffffffffffffffffffffffffffffffffffffffff161461074157600080fd5b60026000815480929190610754906122b7565b919050555060405180608001604052808473ffffffffffffffffffffffffffffffffffffffff16815260200160025481526020018381526020018281525060076000600254815260200190815260200160002060008201518160000160006101000a81548173ffffffffffffffffffffffffffffffffffffffff021916908373ffffffffffffffffffffffffffffffffffffffff16021790555060208201518160010155604082015181600201908161080d919061250b565b506060820151816003019081610823919061250b565b50905050505050565b60045481565b60008111801561084457506001548111155b61084d57600080fd5b600061085833611a07565b90506000811161086757600080fd5b6003600581111561087b5761087a612185565b5b6006600084815260200190815260200160002060070160009054906101000a900460ff1660058111156108b1576108b0612185565b5b146108bb57600080fd5b80600660008481526020019081526020016000206006018190555060046006600084815260200190815260200160002060070160006101000a81548160ff021916908360058111156109105761090f612185565b5b02179055505050565b60035481565b60008111801561093157506001548111155b61093a57600080fd5b600061094533611acd565b90506000811161095457600080fd5b6002600581111561096857610967612185565b5b6006600084815260200190815260200160002060070160009054906101000a900460ff16600581111561099e5761099d612185565b5b146109a857600080fd5b80600660008481526020019081526020016000206005018190555060036006600084815260200190815260200160002060070160006101000a81548160ff021916908360058111156109fd576109fc612185565b5b02179055505050565b600a6020528060005260406000206000915090508060000160009054906101000a900473ffffffffffffffffffffffffffffffffffffffff1690806001015490806002018054610a559061232e565b80601f0160208091040260200160405190810160405280929190818152602001828054610a819061232e565b8015610ace5780601f10610aa357610100808354040283529160200191610ace565b820191906000526020600020905b815481529060010190602001808311610ab157829003601f168201915b505050505090806003018054610ae39061232e565b80601f0160208091040260200160405190810160405280929190818152602001828054610b0f9061232e565b8015610b5c5780601f10610b3157610100808354040283529160200191610b5c565b820191906000526020600020905b815481529060010190602001808311610b3f57829003601f168201915b5050505050905084565b60008054906101000a900473ffffffffffffffffffffffffffffffffffffffff1673ffffffffffffffffffffffffffffffffffffffff163373ffffffffffffffffffffffffffffffffffffffff1614610bbe57600080fd5b60036000815480929190610bd1906122b7565b919050555060405180608001604052808473ffffffffffffffffffffffffffffffffffffffff16815260200160035481526020018381526020018281525060086000600354815260200190815260200160002060008201518160000160006101000a81548173ffffffffffffffffffffffffffffffffffffffff021916908373ffffffffffffffffffffffffffffffffffffffff160217905550602082015181600101556040820151816002019081610c8a919061250b565b506060820151816003019081610ca0919061250b565b50905050505050565b60055481565b60008054906101000a900473ffffffffffffffffffffffffffffffffffffffff1673ffffffffffffffffffffffffffffffffffffffff163373ffffffffffffffffffffffffffffffffffffffff1614610d0757600080fd5b60056000815480929190610d1a906122b7565b919050555060405180608001604052808473ffffffffffffffffffffffffffffffffffffffff168152602001600554815260200183815260200182815250600a6000600554815260200190815260200160002060008201518160000160006101000a81548173ffffffffffffffffffffffffffffffffffffffff021916908373ffffffffffffffffffffffffffffffffffffffff160217905550602082015181600101556040820151816002019081610dd3919061250b565b506060820151816003019081610de9919061250b565b50905050505050565b600081118015610e0457506001548111155b610e0d57600080fd5b6000610e1833611b93565b905060008111610e2757600080fd5b60006005811115610e3b57610e3a612185565b5b6006600084815260200190815260200160002060070160009054906101000a900460ff166005811115610e7157610e70612185565b5b14610e7b57600080fd5b80600660008481526020019081526020016000206003018190555060016006600084815260200190815260200160002060070160006101000a81548160ff02191690836005811115610ed057610ecf612185565b5b02179055505050565b60008054906101000a900473ffffffffffffffffffffffffffffffffffffffff1673ffffffffffffffffffffffffffffffffffffffff163373ffffffffffffffffffffffffffffffffffffffff1614610f3157600080fd5b6000600254118015610f4557506000600354115b8015610f5357506000600454115b8015610f6157506000600554115b610f6a57600080fd5b60016000815480929190610f7d906122b7565b919050555060405180610100016040528060015481526020018381526020018281526020016000815260200160008152602001600081526020016000815260200160006005811115610fd257610fd1612185565b5b815250600660006001548152602001908152602001600020600082015181600001556020820151816001019081611009919061250b565b50604082015181600201908161101f919061250b565b50606082015181600301556080820151816004015560a0820151816005015560c0820151816006015560e08201518160070160006101000a81548160ff0219169083600581111561107357611072612185565b5b02179055509050505050565b60008111801561109157506001548111155b61109a57600080fd5b60006110a533611a07565b9050600081116110b457600080fd5b600660008381526020019081526020016000206006015481146110d657600080fd5b600460058111156110ea576110e9612185565b5b6006600084815260200190815260200160002060070160009054906101000a900460ff1660058111156111205761111f612185565b5b1461112a57600080fd5b60056006600084815260200190815260200160002060070160006101000a81548160ff0219169083600581111561116457611163612185565b5b02179055505050565b60008111801561117f57506001548111155b61118857600080fd5b600061119333611c59565b9050600081116111a257600080fd5b600160058111156111b6576111b5612185565b5b6006600084815260200190815260200160002060070160009054906101000a900460ff1660058111156111ec576111eb612185565b5b146111f657600080fd5b80600660008481526020019081526020016000206004018190555060026006600084815260200190815260200160002060070160006101000a81548160ff0219169083600581111561124b5761124a612185565b5b02179055505050565b60015481565b60008054906101000a900473ffffffffffffffffffffffffffffffffffffffff1681565b60086020528060005260406000206000915090508060000160009054906101000a900473ffffffffffffffffffffffffffffffffffffffff16908060010154908060020180546112cd9061232e565b80601f01602080910402602001604051908101604052809291908181526020018280546112f99061232e565b80156113465780601f1061131b57610100808354040283529160200191611346565b820191906000526020600020905b81548152906001019060200180831161132957829003601f168201915b50505050509080600301805461135b9061232e565b80601f01602080910402602001604051908101604052809291908181526020018280546113879061232e565b80156113d45780601f106113a9576101008083540402835291602001916113d4565b820191906000526020600020905b8154815290600101906020018083116113b757829003601f168201915b5050505050905084565b60025481565b60606000600154116113f557600080fd5b6000600581111561140957611408612185565b5b6006600084815260200190815260200160002060070160009054906101000a900460ff16600581111561143f5761143e612185565b5b03611481576040518060400160405280601081526020017f4d65646963696e65204f72646572656400000000000000000000000000000000815250905061173d565b6001600581111561149557611494612185565b5b6006600084815260200190815260200160002060070160009054906101000a900460ff1660058111156114cb576114ca612185565b5b0361150d576040518060400160405280601981526020017f526177204d6174657269616c20537570706c7920537461676500000000000000815250905061173d565b6002600581111561152157611520612185565b5b6006600084815260200190815260200160002060070160009054906101000a900460ff16600581111561155757611556612185565b5b03611599576040518060400160405280601381526020017f4d616e75666163747572696e6720537461676500000000000000000000000000815250905061173d565b600360058111156115ad576115ac612185565b5b6006600084815260200190815260200160002060070160009054906101000a900460ff1660058111156115e3576115e2612185565b5b03611625576040518060400160405280601281526020017f446973747269627574696f6e2053746167650000000000000000000000000000815250905061173d565b6004600581111561163957611638612185565b5b6006600084815260200190815260200160002060070160009054906101000a900460ff16600581111561166f5761166e612185565b5b036116b1576040518060400160405280600c81526020017f52657461696c2053746167650000000000000000000000000000000000000000815250905061173d565b6005808111156116c4576116c3612185565b5b6006600084815260200190815260200160002060070160009054906101000a900460ff1660058111156116fa576116f9612185565b5b0361173c576040518060400160405280600d81526020017f4d65646963696e6520536f6c6400000000000000000000000000000000000000815250905061173d565b5b919050565b600660205280600052604060002060009150905080600001549080600101805461176b9061232e565b80601f01602080910402602001604051908101604052809291908181526020018280546117979061232e565b80156117e45780601f106117b9576101008083540402835291602001916117e4565b820191906000526020600020905b8154815290600101906020018083116117c757829003601f168201915b5050505050908060020180546117f99061232e565b80601f01602080910402602001604051908101604052809291908181526020018280546118259061232e565b80156118725780601f1061184757610100808354040283529160200191611872565b820191906000526020600020905b81548152906001019060200180831161185557829003601f168201915b5050505050908060030154908060040154908060050154908060060154908060070160009054906101000a900460ff16905088565b60076020528060005260406000206000915090508060000160009054906101000a900473ffffffffffffffffffffffffffffffffffffffff16908060010154908060020180546118f69061232e565b80601f01602080910402602001604051908101604052809291908181526020018280546119229061232e565b801561196f5780601f106119445761010080835404028352916020019161196f565b820191906000526020600020905b81548152906001019060200180831161195257829003601f168201915b5050505050908060030180546119849061232e565b80601f01602080910402602001604051908101604052809291908181526020018280546119b09061232e565b80156119fd5780601f106119d2576101008083540402835291602001916119fd565b820191906000526020600020905b8154815290600101906020018083116119e057829003601f168201915b5050505050905084565b60008060055411611a1757600080fd5b6000600190505b6005548111611ac2578273ffffffffffffffffffffffffffffffffffffffff16600a600083815260200190815260200160002060000160009054906101000a900473ffffffffffffffffffffffffffffffffffffffff1673ffffffffffffffffffffffffffffffffffffffff1603611aaf57600a600082815260200190815260200160002060010154915050611ac8565b8080611aba906122b7565b915050611a1e565b50600090505b919050565b60008060045411611add57600080fd5b6000600190505b6004548111611b88578273ffffffffffffffffffffffffffffffffffffffff166009600083815260200190815260200160002060000160009054906101000a900473ffffffffffffffffffffffffffffffffffffffff1673ffffffffffffffffffffffffffffffffffffffff1603611b75576009600082815260200190815260200160002060010154915050611b8e565b8080611b80906122b7565b915050611ae4565b50600090505b919050565b60008060025411611ba357600080fd5b6000600190505b6002548111611c4e578273ffffffffffffffffffffffffffffffffffffffff166007600083815260200190815260200160002060000160009054906101000a900473ffffffffffffffffffffffffffffffffffffffff1673ffffffffffffffffffffffffffffffffffffffff1603611c3b576007600082815260200190815260200160002060010154915050611c54565b8080611c46906122b7565b915050611baa565b50600090505b919050565b60008060035411611c6957600080fd5b6000600190505b6003548111611d14578273ffffffffffffffffffffffffffffffffffffffff166008600083815260200190815260200160002060000160009054906101000a900473ffffffffffffffffffffffffffffffffffffffff1673ffffffffffffffffffffffffffffffffffffffff1603611d01576008600082815260200190815260200160002060010154915050611d1a565b8080611d0c906122b7565b915050611c70565b50600090505b919050565b6000604051905090565b600080fd5b600080fd5b600073ffffffffffffffffffffffffffffffffffffffff82169050919050565b6000611d5e82611d33565b9050919050565b611d6e81611d53565b8114611d7957600080fd5b50565b600081359050611d8b81611d65565b92915050565b600080fd5b600080fd5b6000601f19601f8301169050919050565b7f4e487b7100000000000000000000000000000000000000000000000000000000600052604160045260246000fd5b611de482611d9b565b810181811067ffffffffffffffff82111715611e0357611e02611dac565b5b80604052505050565b6000611e16611d1f565b9050611e228282611ddb565b919050565b600067ffffffffffffffff821115611e4257611e41611dac565b5b611e4b82611d9b565b9050602081019050919050565b82818337600083830152505050565b6000611e7a611e7584611e27565b611e0c565b905082815260208101848484011115611e9657611e95611d96565b5b611ea1848285611e58565b509392505050565b600082601f830112611ebe57611ebd611d91565b5b8135611ece848260208601611e67565b91505092915050565b600080600060608486031215611ef057611eef611d29565b5b6000611efe86828701611d7c565b935050602084013567ffffffffffffffff811115611f1f57611f1e611d2e565b5b611f2b86828701611ea9565b925050604084013567ffffffffffffffff811115611f4c57611f4b611d2e565b5b611f5886828701611ea9565b9150509250925092565b6000819050919050565b611f7581611f62565b8114611f8057600080fd5b50565b600081359050611f9281611f6c565b92915050565b600060208284031215611fae57611fad611d29565b5b6000611fbc84828501611f83565b91505092915050565b611fce81611d53565b82525050565b611fdd81611f62565b82525050565b600081519050919050565b600082825260208201905092915050565b60005b8381101561201d578082015181840152602081019050612002565b60008484015250505050565b600061203482611fe3565b61203e8185611fee565b935061204e818560208601611fff565b61205781611d9b565b840191505092915050565b60006080820190506120776000830187611fc5565b6120846020830186611fd4565b81810360408301526120968185612029565b905081810360608301526120aa8184612029565b905095945050505050565b60006020820190506120ca6000830184611fd4565b92915050565b600080604083850312156120e7576120e6611d29565b5b600083013567ffffffffffffffff81111561210557612104611d2e565b5b61211185828601611ea9565b925050602083013567ffffffffffffffff81111561213257612131611d2e565b5b61213e85828601611ea9565b9150509250929050565b600060208201905061215d6000830184611fc5565b92915050565b6000602082019050818103600083015261217d8184612029565b905092915050565b7f4e487b7100000000000000000000000000000000000000000000000000000000600052602160045260246000fd5b600681106121c5576121c4612185565b5b50565b60008190506121d6826121b4565b919050565b60006121e6826121c8565b9050919050565b6121f6816121db565b82525050565b600061010082019050612212600083018b611fd4565b8181036020830152612224818a612029565b905081810360408301526122388189612029565b90506122476060830188611fd4565b6122546080830187611fd4565b61226160a0830186611fd4565b61226e60c0830185611fd4565b61227b60e08301846121ed565b9998505050505050505050565b7f4e487b7100000000000000000000000000000000000000000000000000000000600052601160045260246000fd5b60006122c282611f62565b91507fffffffffffffffffffffffffffffffffffffffffffffffffffffffffffffffff82036122f4576122f3612288565b5b600182019050919050565b7f4e487b7100000000000000000000000000000000000000000000000000000000600052602260045260246000fd5b6000600282049050600182168061234657607f821691505b602082108103612359576123586122ff565b5b50919050565b60008190508160005260206000209050919050565b60006020601f8301049050919050565b600082821b905092915050565b6000600883026123c17fffffffffffffffffffffffffffffffffffffffffffffffffffffffffffffffff82612384565b6123cb8683612384565b95508019841693508086168417925050509392505050565b6000819050919050565b60006124086124036123fe84611f62565b6123e3565b611f62565b9050919050565b6000819050919050565b612422836123ed565b61243661242e8261240f565b848454612391565b825550505050565b600090565b61244b61243e565b612456818484612419565b505050565b5b8181101561247a5761246f600082612443565b60018101905061245c565b5050565b601f8211156124bf576124908161235f565b61249984612374565b810160208510156124a8578190505b6124bc6124b485612374565b83018261245b565b50505b505050565b600082821c905092915050565b60006124e2600019846008026124c4565b1980831691505092915050565b60006124fb83836124d1565b9150826002028217905092915050565b61251482611fe3565b67ffffffffffffffff81111561252d5761252c611dac565b5b612537825461232e565b61254282828561247e565b600060209050601f8311600181146125755760008415612563578287015190505b61256d85826124ef565b8655506125d5565b601f1984166125838661235f565b60005b828110156125ab57848901518255600182019150602085019450602081019050612586565b868310156125c857848901516125c4601f8916826124d1565b8355505b6001600288020188555050505b50505050505056fea2646970667358221220d70c36cec160a162e0edab59233fa49e357964a5251f87c857bb7db82f312a2264736f6c63430008120033",
  "immutableReferences": {},
  "source": "// SPDX-License-Identifier: MIT\r\npragma solidity >=0.4.22 <0.9.0;\r\n\r\ncontract SupplyChain {\r\n    //Smart Contract owner will be the person who deploys the contract only he can authorize various roles like retailer, Manufacturer,etc\r\n    address public Owner;\r\n\r\n    //note this constructor will be called when smart contract will be deployed on blockchain\r\n    constructor() public {\r\n        Owner = msg.sender;\r\n    }\r\n\r\n    //Roles (flow of pharma supply chain)\r\n    // RawMaterialSupplier; //This is where Manufacturer will get raw materials to make medicines\r\n    // Manufacturer;  //Various WHO guidelines should be followed by this person\r\n    // Distributor; //This guy distributes the medicines to retailers\r\n    // Retailer; //Normal customer buys from the retailer\r\n\r\n    //modifier to make sure only the owner is using the function\r\n    modifier onlyByOwner() {\r\n        require(msg.sender == Owner);\r\n        _;\r\n    }\r\n\r\n    //stages of a medicine in pharma supply chain\r\n    enum STAGE {\r\n        Init,\r\n        RawMaterialSupply,\r\n        Manufacture,\r\n        Distribution,\r\n        Retail,\r\n        sold\r\n    }\r\n    //using this we are going to track every single medicine the owner orders\r\n\r\n    //Medicine count\r\n    uint256 public medicineCtr = 0;\r\n    //Raw material supplier count\r\n    uint256 public rmsCtr = 0;\r\n    //Manufacturer count\r\n    uint256 public manCtr = 0;\r\n    //distributor count\r\n    uint256 public disCtr = 0;\r\n    //retailer count\r\n    uint256 public retCtr = 0;\r\n\r\n    //To store information about the medicine\r\n    struct medicine {\r\n        uint256 id; //unique medicine id\r\n        string name; //name of the medicine\r\n        string description; //about medicine\r\n        uint256 RMSid; //id of the Raw Material supplier for this particular medicine\r\n        uint256 MANid; //id of the Manufacturer for this particular medicine\r\n        uint256 DISid; //id of the distributor for this particular medicine\r\n        uint256 RETid; //id of the retailer for this particular medicine\r\n        STAGE stage; //current medicine stage\r\n    }\r\n\r\n    //To store all the medicines on the blockchain\r\n    mapping(uint256 => medicine) public MedicineStock;\r\n\r\n    //To show status to client applications\r\n    function showStage(uint256 _medicineID)\r\n        public\r\n        view\r\n        returns (string memory)\r\n    {\r\n        require(medicineCtr > 0);\r\n        if (MedicineStock[_medicineID].stage == STAGE.Init)\r\n            return \"Medicine Ordered\";\r\n        else if (MedicineStock[_medicineID].stage == STAGE.RawMaterialSupply)\r\n            return \"Raw Material Supply Stage\";\r\n        else if (MedicineStock[_medicineID].stage == STAGE.Manufacture)\r\n            return \"Manufacturing Stage\";\r\n        else if (MedicineStock[_medicineID].stage == STAGE.Distribution)\r\n            return \"Distribution Stage\";\r\n        else if (MedicineStock[_medicineID].stage == STAGE.Retail)\r\n            return \"Retail Stage\";\r\n        else if (MedicineStock[_medicineID].stage == STAGE.sold)\r\n            return \"Medicine Sold\";\r\n    }\r\n\r\n    //To store information about raw material supplier\r\n    struct rawMaterialSupplier {\r\n        address addr;\r\n        uint256 id; //supplier id\r\n        string name; //Name of the raw material supplier\r\n        string place; //Place the raw material supplier is based in\r\n    }\r\n\r\n    //To store all the raw material suppliers on the blockchain\r\n    mapping(uint256 => rawMaterialSupplier) public RMS;\r\n\r\n    //To store information about manufacturer\r\n    struct manufacturer {\r\n        address addr;\r\n        uint256 id; //manufacturer id\r\n        string name; //Name of the manufacturer\r\n        string place; //Place the manufacturer is based in\r\n    }\r\n\r\n    //To store all the manufacturers on the blockchain\r\n    mapping(uint256 => manufacturer) public MAN;\r\n\r\n    //To store information about distributor\r\n    struct distributor {\r\n        address addr;\r\n        uint256 id; //distributor id\r\n        string name; //Name of the distributor\r\n        string place; //Place the distributor is based in\r\n    }\r\n\r\n    //To store all the distributors on the blockchain\r\n    mapping(uint256 => distributor) public DIS;\r\n\r\n    //To store information about retailer\r\n    struct retailer {\r\n        address addr;\r\n        uint256 id; //retailer id\r\n        string name; //Name of the retailer\r\n        string place; //Place the retailer is based in\r\n    }\r\n\r\n    //To store all the retailers on the blockchain\r\n    mapping(uint256 => retailer) public RET;\r\n\r\n    //To add raw material suppliers. Only contract owner can add a new raw material supplier\r\n    function addRMS(\r\n        address _address,\r\n        string memory _name,\r\n        string memory _place\r\n    ) public onlyByOwner() {\r\n        rmsCtr++;\r\n        RMS[rmsCtr] = rawMaterialSupplier(_address, rmsCtr, _name, _place);\r\n    }\r\n\r\n    //To add manufacturer. Only contract owner can add a new manufacturer\r\n    function addManufacturer(\r\n        address _address,\r\n        string memory _name,\r\n        string memory _place\r\n    ) public onlyByOwner() {\r\n        manCtr++;\r\n        MAN[manCtr] = manufacturer(_address, manCtr, _name, _place);\r\n    }\r\n\r\n    //To add distributor. Only contract owner can add a new distributor\r\n    function addDistributor(\r\n        address _address,\r\n        string memory _name,\r\n        string memory _place\r\n    ) public onlyByOwner() {\r\n        disCtr++;\r\n        DIS[disCtr] = distributor(_address, disCtr, _name, _place);\r\n    }\r\n\r\n    //To add retailer. Only contract owner can add a new retailer\r\n    function addRetailer(\r\n        address _address,\r\n        string memory _name,\r\n        string memory _place\r\n    ) public onlyByOwner() {\r\n        retCtr++;\r\n        RET[retCtr] = retailer(_address, retCtr, _name, _place);\r\n    }\r\n\r\n    //To supply raw materials from RMS supplier to the manufacturer\r\n    function RMSsupply(uint256 _medicineID) public {\r\n        require(_medicineID > 0 && _medicineID <= medicineCtr);\r\n        uint256 _id = findRMS(msg.sender);\r\n        require(_id > 0);\r\n        require(MedicineStock[_medicineID].stage == STAGE.Init);\r\n        MedicineStock[_medicineID].RMSid = _id;\r\n        MedicineStock[_medicineID].stage = STAGE.RawMaterialSupply;\r\n    }\r\n\r\n    //To check if RMS is available in the blockchain\r\n    function findRMS(address _address) private view returns (uint256) {\r\n        require(rmsCtr > 0);\r\n        for (uint256 i = 1; i <= rmsCtr; i++) {\r\n            if (RMS[i].addr == _address) return RMS[i].id;\r\n        }\r\n        return 0;\r\n    }\r\n\r\n    //To manufacture medicine\r\n    function Manufacturing(uint256 _medicineID) public {\r\n        require(_medicineID > 0 && _medicineID <= medicineCtr);\r\n        uint256 _id = findMAN(msg.sender);\r\n        require(_id > 0);\r\n        require(MedicineStock[_medicineID].stage == STAGE.RawMaterialSupply);\r\n        MedicineStock[_medicineID].MANid = _id;\r\n        MedicineStock[_medicineID].stage = STAGE.Manufacture;\r\n    }\r\n\r\n    //To check if Manufacturer is available in the blockchain\r\n    function findMAN(address _address) private view returns (uint256) {\r\n        require(manCtr > 0);\r\n        for (uint256 i = 1; i <= manCtr; i++) {\r\n            if (MAN[i].addr == _address) return MAN[i].id;\r\n        }\r\n        return 0;\r\n    }\r\n\r\n    //To supply medicines from Manufacturer to distributor\r\n    function Distribute(uint256 _medicineID) public {\r\n        require(_medicineID > 0 && _medicineID <= medicineCtr);\r\n        uint256 _id = findDIS(msg.sender);\r\n        require(_id > 0);\r\n        require(MedicineStock[_medicineID].stage == STAGE.Manufacture);\r\n        MedicineStock[_medicineID].DISid = _id;\r\n        MedicineStock[_medicineID].stage = STAGE.Distribution;\r\n    }\r\n\r\n    //To check if distributor is available in the blockchain\r\n    function findDIS(address _address) private view returns (uint256) {\r\n        require(disCtr > 0);\r\n        for (uint256 i = 1; i <= disCtr; i++) {\r\n            if (DIS[i].addr == _address) return DIS[i].id;\r\n        }\r\n        return 0;\r\n    }\r\n\r\n    //To supply medicines from distributor to retailer\r\n    function Retail(uint256 _medicineID) public {\r\n        require(_medicineID > 0 && _medicineID <= medicineCtr);\r\n        uint256 _id = findRET(msg.sender);\r\n        require(_id > 0);\r\n        require(MedicineStock[_medicineID].stage == STAGE.Distribution);\r\n        MedicineStock[_medicineID].RETid = _id;\r\n        MedicineStock[_medicineID].stage = STAGE.Retail;\r\n    }\r\n\r\n    //To check if retailer is available in the blockchain\r\n    function findRET(address _address) private view returns (uint256) {\r\n        require(retCtr > 0);\r\n        for (uint256 i = 1; i <= retCtr; i++) {\r\n            if (RET[i].addr == _address) return RET[i].id;\r\n        }\r\n        return 0;\r\n    }\r\n\r\n    //To sell medicines from retailer to consumer\r\n    function sold(uint256 _medicineID) public {\r\n        require(_medicineID > 0 && _medicineID <= medicineCtr);\r\n        uint256 _id = findRET(msg.sender);\r\n        require(_id > 0);\r\n        require(_id == MedicineStock[_medicineID].RETid); //Only correct retailer can mark medicine as sold\r\n        require(MedicineStock[_medicineID].stage == STAGE.Retail);\r\n        MedicineStock[_medicineID].stage = STAGE.sold;\r\n    }\r\n\r\n    // To add new medicines to the stock\r\n    function addMedicine(string memory _name, string memory _description)\r\n        public\r\n        onlyByOwner()\r\n    {\r\n        require((rmsCtr > 0) && (manCtr > 0) && (disCtr > 0) && (retCtr > 0));\r\n        medicineCtr++;\r\n        MedicineStock[medicineCtr] = medicine(\r\n            medicineCtr,\r\n            _name,\r\n            _description,\r\n            0,\r\n            0,\r\n            0,\r\n            0,\r\n            STAGE.Init\r\n        );\r\n    }\r\n}\r\n",
  "sourcePath": "C:\\Users\\Khan\\Desktop\\Blockchain tutorial\\Supply-Chain for Godetest\\Supply-Chain-Blockchain\\contracts\\SupplyChain.sol",
  "compiler": {
    "name": "solc",
    "version": "0.8.18+commit.87f61d96.Emscripten.clang"
  },
  "schemaVersion": "3.4.11",
  "updatedAt": "2023-02-15T21:01:53.321Z",
  "networkType": "ethereum",
  "devdoc": {
    "kind": "dev",
    "methods": {},
    "version": 1
  },
  "userdoc": {
    "kind": "user",
    "methods": {},
    "version": 1
  }
}